{
  "contractName": "AppProxyUpgradeable",
  "abi": [
    {
      "constant": true,
      "inputs": [],
      "name": "isDepositable",
      "outputs": [
        {
          "name": "",
          "type": "bool"
        }
      ],
      "payable": false,
      "stateMutability": "view",
      "type": "function"
    },
    {
      "constant": true,
      "inputs": [],
      "name": "appId",
      "outputs": [
        {
          "name": "",
          "type": "bytes32"
        }
      ],
      "payable": false,
      "stateMutability": "view",
      "type": "function"
    },
    {
      "constant": true,
      "inputs": [],
      "name": "kernel",
      "outputs": [
        {
          "name": "",
          "type": "address"
        }
      ],
      "payable": false,
      "stateMutability": "view",
      "type": "function"
    },
    {
      "inputs": [
        {
          "name": "_kernel",
          "type": "address"
        },
        {
          "name": "_appId",
          "type": "bytes32"
        },
        {
          "name": "_initializePayload",
          "type": "bytes"
        }
      ],
      "payable": false,
      "stateMutability": "nonpayable",
      "type": "constructor"
    },
    {
      "payable": true,
      "stateMutability": "payable",
      "type": "fallback"
    },
    {
      "anonymous": false,
      "inputs": [
        {
          "indexed": false,
          "name": "sender",
          "type": "address"
        },
        {
          "indexed": false,
          "name": "value",
          "type": "uint256"
        }
      ],
      "name": "ProxyDeposit",
      "type": "event"
    },
    {
      "constant": true,
      "inputs": [],
      "name": "implementation",
      "outputs": [
        {
          "name": "",
          "type": "address"
        }
      ],
      "payable": false,
      "stateMutability": "view",
      "type": "function"
    },
    {
      "constant": true,
      "inputs": [],
      "name": "proxyType",
      "outputs": [
        {
          "name": "proxyTypeId",
          "type": "uint256"
        }
      ],
      "payable": false,
      "stateMutability": "pure",
      "type": "function"
    }
  ],
  "bytecode": "0x608060405234801561001057600080fd5b506040516108d93803806108d9833981018060405281019080805190602001909291908051906020019092919080518201929190505050828282600061006484610160640100000000026401000000009004565b61007c836101aa640100000000026401000000009004565b610094836101f4640100000000026401000000009004565b9050600082511115610154576100b8816102f8640100000000026401000000009004565b15156100c357600080fd5b8073ffffffffffffffffffffffffffffffffffffffff168260405180828051906020019080838360005b838110156101085780820151818401526020810190506100ed565b50505050905090810190601f1680156101355780820380516001836020036101000a031916815260200191505b50915050600060405180830381855af4915050151561015357600080fd5b5b505050505050506103ad565b6101a7817f4172f0f7d2289153072b0a6ca36959e0cbe2efc3afe50fc81636caa96338137b6001026000191661034a640100000000026104e3179091906401000000009004565b50565b6101f1817fd625496217aa6a3453eecb9c3489dc5a53e6c67b444329ea2b2cbc9ff547639b60010260001916610351640100000000026104ea179091906401000000009004565b50565b600061020d610358640100000000026401000000009004565b73ffffffffffffffffffffffffffffffffffffffff1663be00bbd87ff1f3eb40f5bc1ad1344716ced8b8a0431d840b5783aea1fd01786bc26f35ac0f600102846040518363ffffffff167c0100000000000000000000000000000000000000000000000000000000028152600401808360001916600019168152602001826000191660001916815260200192505050602060405180830381600087803b1580156102b657600080fd5b505af11580156102ca573d6000803e3d6000fd5b505050506040513d60208110156102e057600080fd5b81019080805190602001909291905050509050919050565b600080600073ffffffffffffffffffffffffffffffffffffffff168373ffffffffffffffffffffffffffffffffffffffff1614156103395760009150610344565b823b90506000811191505b50919050565b8082555050565b8082555050565b600061039d7f4172f0f7d2289153072b0a6ca36959e0cbe2efc3afe50fc81636caa96338137b600102600019166103a2640100000000026104d8176401000000009004565b905090565b600081549050919050565b61051d806103bc6000396000f30060806040526004361061006d576000357c0100000000000000000000000000000000000000000000000000000000900463ffffffff1680634555d5c91461013857806348a0c8dd146101635780635c60da1b1461019257806380afdea8146101e9578063d4aae0c41461021c575b600080600061271092507f665fd576fbbe6f247aff98f5c94a561e3f71ec2d3c988d56f12d342396c50cea6001029150825a10156100ec5760003411361583541616156100e7576040513381523460208201527f15eeaa57c7bd188c1388020bcadc2c436ec60d647d36ef5b9eb3c742217ddee1604082a1005b600080fd5b6100f4610273565b9050610133816000368080601f01602080910402602001604051908101604052809392919081815260200183838082843782019150505050505061028a565b505050005b34801561014457600080fd5b5061014d6102cd565b6040518082815260200191505060405180910390f35b34801561016f57600080fd5b506101786102d6565b604051808215151515815260200191505060405180910390f35b34801561019e57600080fd5b506101a7610273565b604051808273ffffffffffffffffffffffffffffffffffffffff1673ffffffffffffffffffffffffffffffffffffffff16815260200191505060405180910390f35b3480156101f557600080fd5b506101fe61030d565b60405180826000191660001916815260200191505060405180910390f35b34801561022857600080fd5b50610231610344565b604051808273ffffffffffffffffffffffffffffffffffffffff1673ffffffffffffffffffffffffffffffffffffffff16815260200191505060405180910390f35b600061028561028061030d565b61037b565b905090565b600061029583610470565b15156102a057600080fd5b612710905060008083516020850186855a03f43d604051816000823e82600081146102c9578282f35b8282fd5b60006002905090565b60006103087f665fd576fbbe6f247aff98f5c94a561e3f71ec2d3c988d56f12d342396c50cea600102600019166104c2565b905090565b600061033f7fd625496217aa6a3453eecb9c3489dc5a53e6c67b444329ea2b2cbc9ff547639b600102600019166104cd565b905090565b60006103767f4172f0f7d2289153072b0a6ca36959e0cbe2efc3afe50fc81636caa96338137b600102600019166104d8565b905090565b6000610385610344565b73ffffffffffffffffffffffffffffffffffffffff1663be00bbd87ff1f3eb40f5bc1ad1344716ced8b8a0431d840b5783aea1fd01786bc26f35ac0f600102846040518363ffffffff167c0100000000000000000000000000000000000000000000000000000000028152600401808360001916600019168152602001826000191660001916815260200192505050602060405180830381600087803b15801561042e57600080fd5b505af1158015610442573d6000803e3d6000fd5b505050506040513d602081101561045857600080fd5b81019080805190602001909291905050509050919050565b600080600073ffffffffffffffffffffffffffffffffffffffff168373ffffffffffffffffffffffffffffffffffffffff1614156104b157600091506104bc565b823b90506000811191505b50919050565b600081549050919050565b600081549050919050565b600081549050919050565b8082555050565b80825550505600a165627a7a72305820f93804a26eab6f499c9874786bf58c22d85a7362ebc9d9d9e49c147dfa3ff5ad0029",
  "source": "pragma solidity 0.4.24;\n\nimport \"./AppProxyBase.sol\";\n\n\ncontract AppProxyUpgradeable is AppProxyBase {\n    /**\n    * @dev Initialize AppProxyUpgradeable (makes it an upgradeable Aragon app)\n    * @param _kernel Reference to organization kernel for the app\n    * @param _appId Identifier for app\n    * @param _initializePayload Payload for call to be made after setup to initialize\n    */\n    constructor(IKernel _kernel, bytes32 _appId, bytes _initializePayload)\n        AppProxyBase(_kernel, _appId, _initializePayload)\n        public // solium-disable-line visibility-first\n    {\n        // solium-disable-previous-line no-empty-blocks\n    }\n\n    /**\n     * @dev ERC897, the address the proxy would delegate calls to\n     */\n    function implementation() public view returns (address) {\n        return getAppBase(appId());\n    }\n\n    /**\n     * @dev ERC897, whether it is a forwarding (1) or an upgradeable (2) proxy\n     */\n    function proxyType() public pure returns (uint256 proxyTypeId) {\n        return UPGRADEABLE;\n    }\n}\n",
  "sourcePath": "@aragon/os/contracts/apps/AppProxyUpgradeable.sol",
  "compiler": {
    "name": "solc",
    "version": "0.4.24+commit.e67f0147.Emscripten.clang"
  },
  "schemaVersion": "2.0.1",
  "updatedAt": "2019-10-24T20:05:12.840Z"
}